:100000000C947E010C94AD010C94AD010C94AD01E7
:100010000C94AD010C94AD010C94AD010C94AD01A8
:100020000C94AD010C94ED3B0C94AD010C94AD011E
:100030000C94AD010C94AD010C94AD010C94AD0188
:100040000C94AD010C94AD010C9473360C94AD017D
:100050000C942E3A0C94643A0C94AD010C94AD01BE
:100060000C94AD010C94AD010C94761F0C94AD0171
:100070000C94DB3A0C94113B0C94AD010C94AD0143
:100080000C94AD010C94AD010C94EB2C430C430C7F
:100090002E0C2E0C3B0C3B0C470C470C56126512D9
:1000A00076129512A612B712C812D912EA12FB12D2
:1000B0000C131D132E133F1350136113721383136C
:1000C0009413BC13ED13FE1310142114391451149E
:1000D0006214731485149D14B514CD14DE14FD142C
:1000E0000E151F1530154115521563157C158D150C
:1000F0009E15AF15C015D427E127E527EB27F1277B
:1001000006280F2816281B282128212821282128E5
:100110002128212821282128212821282128212897
:100120002128212821282128212821282128212887
:10013000212821282128D427DA27E127E527EB27C2
:10014000F127F727FB270028C637CB37D037DA3718
:1001500008380838E437EC37F437FE3725382838C4
:100160001B381F383F383F382C38303836383A384B
:10017000005EBCE2613FDD83C29C7E20A3FD1F4187
:100180009DC3217FFCA2401E5F01E3BD3E6082DC77
:10019000237D9FC1421CFEA0E1BF5D0380DE3C6267
:1001A000BEE0025CDF81633D7C22C09E1D43A1FF57
:1001B0004618FAA427799BC584DA3866E5BB590747
:1001C000DB856739BAE406581947A5FB7826C49A37
:1001D000653BD987045AB8E6A7F91B45C6987A2427
:1001E000F8A6441A99C7257B3A6486D85B05E7B917
:1001F0008CD2306EEDB3510F4E10F2AC2F7193CD07
:10020000114FADF3702ECC92D38D6F31B2EC0E50F6
:10021000AFF1134DCE90722C6D33D18F0C52B0EEE6
:10022000326C8ED0530DEFB1F0AE4C1291CF2D73D6
:10023000CA947628ABF517490856B4EA6937D58BC6
:100240005709EBB536688AD495CB2977F4AA4816B6
:10025000E9B7550B88D6346A2B7597C94A14F6A8A6
:10026000742AC896154BA9F7B6E80A54D7896B3596
:10027000000000000000000103080200090A00005D
:100280000000000000000000000000000000040763
:100290000102040801020408204010204080804030
:1002A0002010080402010102040810204080108080
:1002B0000404040402020202040402020202010114
:1002C0000101010101010303030303030303040408
:1002D0000000200023002600290000002200250045
:1002E00028002B0000002100240027002A00020023
:1002F000CE168C1EB22D983A453B551711241FBEC1
:10030000CFEFD0E4DEBFCDBF12E0A0E0B1E0EAE382
:10031000F6E800E00BBF02C007900D92A639B107C6
:10032000D9F728E0A6E9B2E001C01D92A93AB207C8
:10033000E1F712E0CAEFD2E000E006C0229701091F
:10034000FE010BBF0E943440C03FD10780E0080788
:10035000A9F70E94883D0C940B430C940000209157
:1003600046052F5F20934605822F6AE00E94C33F17
:1003700080934705243611F4109246058A3011F413
:1003800010924705089510924B0560E08FE10C94A0
:100390007938CF92DF92EF92FF9260E083EF94E0A2
:1003A0000E943B346B017C01809135056AE00E941C
:1003B000C33F682F70E080E090E00E949C3E9B016C
:1003C000AC01C701B6010E94983D20E030E048EC46
:1003D00052E40E94503F0E94693ECB01FF90EF9093
:1003E000DF90CF900895CF92DF92EF92FF92CF935C
:1003F000DF938FE0EBEBF5E0ACEAB5E001900D9216
:100400008A95E1F780912A05882349F00E94BC2251
:10041000AB01BC018AE695E00E94402A02C00E941E
:10042000BC226093540570935505809356059093B4
:100430005705C0905405D0905505E0905605F090B2
:100440005705C701B60120E831E541E050E00E94C0
:10045000E33F2F5F3F4F4F4F5F4F60E871E581E013
:1004600090E00E94B33F6C197D098E099F0960934B
:10047000E2027093E3028093E4029093E5024BED75
:1004800052E00E94A720609154057091550580911B
:100490005605909157050E94A421CAE0D0E0BE0104
:1004A0000E94CF3F6093BB05609154057091550544
:1004B00080915605909157050E94A421BE010E948B
:1004C000CF3F8093BC056091540570915505809194
:1004D0005605909157050E94AA21BE010E94CF3F68
:1004E0006093BD0560915405709155058091560546
:1004F000909157050E94AA21BE010E94CF3F809390
:10050000BE056091540570915505809156059091F6
:1005100057050E94B021BE010E94CF3F6093BF05E6
:10052000609154057091550580915605909157053D
:100530000E94B021BE010E94CF3F8093C0058091F0
:10054000DD022AE0622F0E94C33F8093C80590938A
:10055000C9058091DC020E94C33F8093C605909339
:10056000C7058091DB020E94C33F8093C40590932E
:10057000C50580912901882349F08FE0EBEBF5E078
:10058000ACEAB5E001900D928A95E1F7109229014D
:10059000DF91CF91FF90EF90DF90CF9008950F9370
:1005A0001F93CF93DF93CDB7DEB727970FB6F8949D
:1005B000DEBF0FBECDBF8091EC05882309F458C083
:1005C0008091FA05882309F453C00E94BD3600913A
:1005D0000406109105062091060630910706601B5F
:1005E000710B820B930B6C3D75408105910508F0F2
:1005F0003FC08091FB058823D9F18AEF95E00E94E6
:100600001A268B838AEF95E00E9428268A838AEF38
:1006100095E00E943E2689838CEE95E00E94DD25C0
:10062000825B8F838CEE95E00E94ED258E838CEEAD
:1006300095E00E940C268D83CE0101960E94D02168
:1006400000915E0510915F05209160053091610574
:10065000600F711F821F931F609358057093590597
:1006600080935A0590935B05462F372F282F04C09F
:1006700040E030E020E090E0642F732F822F279637
:100680000FB6F894DEBF0FBECDBFDF91CF911F91A3
:100690000F91089510925E0510925F05109260050B
:1006A0001092610580912705882341F1409128052A
:1006B00020E13EE0429FC001439F900D1124AA27F4
:1006C00097FDA095BA2F80935E0590935F05A09348
:1006D0006005B09361052091370521110FC0B095D9
:1006E000A095909581959F4FAF4FBF4F80935E052A
:1006F00090935F05A0936005B093610510925D052E
:1007000010925C0580912E05882399F02CE3829F3E
:10071000C001112490935D0580935C0520912F0505
:10072000211107C091958195910990935D05809362
:100730005C0508952998289A289808952AE030E0C1
:10074000E82FF0E0E85CFE4F21503109808190E015
:100750008217930711F4299A01C02998289A28989A
:100760002115310589F70895E82FF0E0E85CFE4F88
:100770008081811102C0299801C0299A2C9A2C9855
:1007800008950F931F93CF93DF93CAE0D0E0082F13
:1007900010E0085C1E4F2197F801808190E08C17D3
:1007A0009D0711F461E001C060E085E00E947938A6
:1007B0002C9A2C98209779F7DF91CF911F910F9168
:1007C0000895CF93C82F8091070381110DC00E9417
:1007D000BD366093D6027093D7028093D80290936F
:1007E000D90281E08093070310924701C1110EC026
:1007F0002091470520933E01809146056AE00E94C2
:10080000C33F90933F0189E0821B05C08AE080933B
:100810003E0180933F018093400111988FE00E9438
:10082000B40386E00E94C10387E00E94C10388E010
:100830000E94C103119ACF9108959091D5029930E9
:1008400048F0811109C082E390E090932C018093DD
:100850002B010895882359F088E080932601109297
:10086000D50283E090E090932C0180932B0120919E
:1008700026012150209326013091D5028091250533
:1008800090E001974AE0489FF001499FF00D112444
:10089000E30FF11DE457FE4F808190E0022E02C06D
:1008A000959587950A94E2F780FF03C08BEB95E05E
:1008B00002C08CEA95E09093AB058093AA052111C4
:1008C00006C088E0809326013F5F3093D5020895EB
:1008D0001F93CF93DF93162FD42FC22F882309F4B1
:1008E0004EC00E947E236AE070E00E94CF3F90914C
:1008F0002801981731F091E0909327018093280107
:1009000002C01092270180912505882349F081E0DB
:1009100090912701911101C080E00E941D0406C042
:100920008BEB95E09093AB058093AA05E091AA0527
:10093000F091AB05858580934201868580934101C6
:1009400083858093440184858093430181858093CE
:100950004601828580934501808180933D0181819C
:1009600080933C01828180933B01838180933A0193
:1009700084818093390185818093380114C060E0BF
:1009800084E10E9479388FE00E94B40386E00E94DF
:10099000C10387E00E94C10388E00E94C10361E0B7
:1009A00084E10E947938112329F08AE080933D0187
:1009B00080933C01DD2329F08AE080933B01809302
:1009C0003A01CC2329F08AE08093390180933801E1
:1009D0002A988EE00E949E038DE00E949E038CE088
:1009E0000E949E030E949A030E949A038BE00E9439
:1009F0009E038AE00E949E0389E00E949E030E945B
:100A00009A030E949A0385E00E949E0384E00E945C
:100A10009E0383E00E949E030E949A030E949A0311
:100A200082E00E949E0381E00E949E0380E00E947B
:100A30009E032A9ADF91CF911F910895E8E3F1E098
:100A40008AE0819391E0E734F907D9F710924701E2
:100A500020E040E060E080E00E94680481E00C94C7
:100A6000E103CF93DF93FA01A081AF3F79F42091A6
:100A7000480530914905280F391F261737075CF5BF
:100A800037FF2BC09B012150310927C0B0E0FA018C
:100A900020E030E0C191D0E08C179D07A9F480914F
:100AA000480590914905820F931F8617970729F0F3
:100AB00097FF05C0CB01019702C080E090E0FA01EA
:100AC000E80FF91F208109C02F5F3F4F2617370716
:100AD0000CF3CD01DCCF20E030E0109249051092FC
:100AE0004805822FDF91CF9108952091270522306C
:100AF00079F028F42223C1F0213039F00895243010
:100B000069F048F0253069F0089580EC92E108958D
:100B100080E895E2089580E09BE4089580E096E9FE
:100B2000089580E091EE089580E090E008956F923E
:100B30007F928F929F92AF92BF92CF92DF92EF926D
:100B4000FF920F931F93CF93DF93D82FC62F642E5E
:100B5000722E0E94BD366B017C018091EF028111E3
:100B60000DC00E94BD366093A4027093A5028093CD
:100B7000A6029093A70281E08093EF02D33019F48C
:100B80008091A00201C08D2F8093A002C33019F480
:100B90008091A10201C08C2F8093A10223E06212F8
:100BA00003C08091A20201C0862D8093A20283E03F
:100BB000781203C08091A30201C0872D8093A30205
:100BC0000E94BD368090A4029090A502A090A6023B
:100BD000B090A702681979098A099B09683E734099
:100BE0008105910550F4D33041F4C33031F4F3E082
:100BF0006F1203C07F1609F46FC00E94BD36609368
:100C0000A4027093A5028093A6029093A7028091FC
:100C10004801811118C080910601882309F45CC045
:100C200060E08CE10E94793860E08EE10E947938C2
:100C300060E088E00E94793860E089E00E947938BD
:100C40001092060149C081E08093060180919C02C8
:100C500090919D02A0919E02B0919F024601570182
:100C6000881A990AAA0ABB0A00EA12E0C1EFD1E089
:100C700077247394F80161918F01623020F48881A8
:100C80000E94793818C0F4EF8F16F1E09F06A10496
:100C9000B10488F0623079F4C0929C02D0929D0237
:100CA000E0929E02F0929F0260919B0288810E94D6
:100CB000793870929A02219622E0043A1207D1F60E
:100CC00080919A02882341F080919B0291E08927CC
:100CD00080939B0210929A02DF91CF911F910F9106
:100CE000FF90EF90DF90CF90BF90AF909F908F904C
:100CF0007F906F9008958F929F92AF92BF92CF9204
:100D0000DF92EF92FF920F931F93CF93DF93882E82
:100D10000E94CF02609358057093590580935A053D
:100D200090935B05672B682B692B09F46DC01092BB
:100D3000DA020E94512E6B017C01409158055091BE
:100D4000590560915A0570915B05C41AD50AE60AE7
:100D5000F70AF7FE08C0F094E094D094C094C11C48
:100D6000D11CE11CF11C912CA12CB12CC814D9046C
:100D7000EA04FB04DCF189E597E00E943C2F6091D6
:100D800058057091590580915A0590915B050E9414
:100D90008B228AEF95E00E945D269AE0899FE00110
:100DA00011248091FA05882379F00E94BD360091C4
:100DB0000406109105062091060630910706601B77
:100DC000710B820B930B03C06FEF7FEFCB01CE0152
:100DD000860F971F0E94AA238C149D04AE04BF04A3
:100DE000F4F523E043E061E081E02BC023E043E041
:100DF00060E081E00E94970580913B058150823040
:100E000070F5109248012BC08091DA028F5F8F3FFE
:100E100009F485E08093DA028091DA028530F8F0F7
:100E200080913B05813031F0823039F48091650545
:100E3000811103C081E08093480123E043E060E03A
:100E400082E0DF91CF911F910F91FF90EF90DF90A3
:100E5000CF90BF90AF909F908F900C949705DF91AB
:100E6000CF911F910F91FF90EF90DF90CF90BF90A7
:100E7000AF909F908F900895CF92DF92EF92FF9264
:100E800083E10E947937BC01882777FD8095982FF0
:100E90000E949C3E6B017C0120E030E04FE254E474
:100EA0000E94FD3D87FD11C020E030E041E654E4A2
:100EB000C701B6010E944C3F18166CF4C12CD12C0E
:100EC00081E6E82E84E4F82E06C0C12CD12C9FE2E6
:100ED000E92E94E4F92E20E030E04FE254E4C7011B
:100EE000B6010E94983D20E030E048E453E40E94BF
:100EF000013E20E030E048E452E40E94503F9B0174
:100F0000AC0160E070E088E492E40E94983D20E04B
:100F100030E0A9010E94993D0E94693ECB01FF90FB
:100F2000EF90DF90CF900895CF92DF92EF92FF92F3
:100F3000853050F4833078F4813078F1FF90EF9071
:100F4000DF90CF900C94C901853039F583EF94E0A0
:100F50000E945A3322C060E083EF94E00E94EF3396
:100F60006B017C01809135056AE00E94C33F682FC8
:100F700070E080E090E00E949C3E9B01AC01C701C4
:100F8000B6010E94983D20E030E048EC52E40E9417
:100F9000503F0E94693ECB0102C080E090E0FF908C
:100FA000EF90DF90CF90089561E08DE10E94793855
:100FB00062E070E080E090E00E94EC3660E08DE15D
:100FC0000C9479380F931F93CF93809165058823F4
:100FD00039F080916405811103C0C0914E0502C0B3
:100FE000C0914C0580913905882349F080914B05CB
:100FF000811105C080914A05882309F462C080915F
:1010000037058823D1F00E943C072091370530E056
:101010002817390794F4C091380581E090E0909347
:101020005305809352050E94BD36609396027093DB
:10103000970280939802909399020E94BD36009186
:101040009602109197022091980230919902601BAC
:10105000710B820B930B613177428105910520F072
:1010600010925305109252058091520590915305AC
:10107000019731F480913805C81711F0C11128C0CB
:101080008FEF8C0F883068F4EC2FF0E0EE0FFF1F2D
:10109000E055FE4F80913A0560817181680F711DA6
:1010A00004C0C93039F46FEF70E087E00E94A037C8
:1010B00061E008C0C1110CC060E070E087E00E94F0
:1010C000A03760E08FE1CF911F910F910C94793898
:1010D000CF911F910F9108951092650510926305AD
:1010E0000E94E20723E040E063E083E00C94970570
:1010F000EF92FF920F931F93CF93DF93CDB7DEB79D
:1011000027970FB6F894DEBF0FBECDBF40915405B0
:101110005091550560915605709157058AE695E006
:101120000E947E2A882311F021E001C020E043E0E4
:1011300063E083E00E949705609154057091550526
:1011400080915605909157050E94BC21019709F4A2
:1011500082C060915405709155058091560590911B
:1011600057050E94BC21079709F475C0F12C6091C6
:101170005405709155058091560590915705AE0123
:101180004F5F5F4F0E94A72000E010E0EE24E39441
:101190006EE0600FF801EC5EFA4F438550E0248565
:1011A00030E075858B814217530709F440C090E009
:1011B0002417350734F4285E3F4F8417950724F42D
:1011C00048968417950754F1821793073CF5872FAB
:1011D00090E0009751F08130910519F4F1101EC094
:1011E00004C00297D9F4FF20C9F0E092650560932E
:1011F0006305868590E090934F0580934E050E948D
:10120000E20780913B05823011F41092480123E0FF
:1012100041E063E083E00E94970509C08091630587
:10122000861305C08091650581110E946C080450E9
:101230001109043F8FEF180709F0AACF27960FB6C0
:10124000F894DEBF0FBECDBFDF91CF911F910F91FC
:10125000FF90EF900895FF24F39489CF10926405D6
:1012600010924A050C947808CF92DF92EF92FF9289
:101270000F931F93CF93DF9380912501882309F467
:1012800051C00E94BC226B017C010E94A42190935A
:10129000D4028093D302C701B6010E94AA21909381
:1012A000D2028093D102C701B6010E94B02190936F
:1012B000D0028093CF02C701B6010E94C221909351
:1012C000CE028093CD02C701B6010E94B621909351
:1012D000CC028093CB02C701B6010E94C821805D79
:1012E00097409093CA028093C9020E94D40710923B
:1012F0004B0510926505109264058091160590E0EB
:1013000090934D0580934C050E94E2070E94BD36E4
:101310006093410570934205809343059093440583
:101320001092250184EE94E00E94972F892BB1F44E
:1013300084EE94E00E94832F693B7B4081059105F8
:1013400068F00E94D40784E08093450581E0809393
:1013500025011092C8021092C7022AC284EE94E0BE
:101360000E940D308823A9F08091C7029091C80295
:1013700001969093C8028093C7020E94BD36609385
:1013800041057093420580934305909344050E9464
:10139000D40785ED94E00E940D308823F9F0809108
:1013A000C7029091C80201979093C8028093C70228
:1013B0000E94BD36609341057093420580934305BA
:1013C000909344058091C7029091C80297FF04C092
:1013D0001092C8021092C7020E94D4070E94BD3624
:1013E000C090C302D090C402E090C502F090C60243
:1013F0006C197D098E099F09683C7105810591056D
:10140000A0F10E94BD366093C3027093C402809322
:10141000C5029093C6028091C7029091C80263E012
:1014200070E00E94CF3F8230910511F41092C1020A
:10143000FC01E054FD4F2081222311F0108202C0F4
:1014400021E02083009719F41092C10205C0813079
:10145000910529F41092C0021092C20206C00297B0
:1014600021F41092C0021092C10286EC94E00E9416
:101470000D308823D1F046E950E060E070E086EC62
:1014800094E00E947D2F0E94BD36609341057093C9
:10149000420580934305909344050E94D40781E060
:1014A00090E09093BF028093BE0287EB94E00E948D
:1014B0000D308823D1F046E950E060E070E087EB22
:1014C00094E00E947D2F0E94BD3660934105709389
:1014D000420580934305909344050E94D4078FEF03
:1014E0009FEF9093BF028093BE02E091C702F091FC
:1014F000C8028091D3029091D4026091D102709180
:10150000D2024091CF025091D0020091CD021091B1
:10151000CE022091CB023091CC02C091C902D09171
:10152000CA02A091BE02B091BF02109709F46BC02D
:10153000E230F10581F134F4309771F0E130F105DA
:10154000D9F061C0E430F10509F442C09CF1E53006
:10155000F10509F44BC057C08A0F9B1F88319105D4
:1015600041F08F3FAFEF9A0709F04DC087E190E05F
:101570004AC080E090E047C06A0F7B1F6C33710562
:1015800019F460E070E03FC06F3FAFEF7A07D9F524
:101590006BE370E038C04A0F5B1F4C33510519F400
:1015A00040E050E030C04F3FAFEF5A0761F54BE3EA
:1015B00050E029C00A0F1B1F0D30110519F401E07E
:1015C00010E021C001151105F1F40CE010E01BC082
:1015D0002A0F3B1F2032310519F421E030E013C0FF
:1015E0002115310581F42FE130E00DC0CA0FDB1F5A
:1015F000C436D10519F4C0E1D0E005C0CF30D10523
:1016000014F4C3E6D0E09093D4028093D302709395
:10161000D2026093D1025093D0024093CF02109334
:10162000CE020093CD023093CC022093CB02D09314
:10163000CA02C093C9021092BF021092BE0236972E
:10164000B1F47E01E0E3EE1AE8EFFE0A0E94862381
:101650000E94BC22AB01BC0189E597E00E943C2FAF
:1016600080916205882319F080E00E947B068091BA
:10167000C7029091C802069799F00E94BD36C090AB
:101680004105D0904205E0904305F09044056C1967
:101690007D098E099F09613C744D81409105C0F020
:1016A0001092C8021092C7020E946C080E9478082B
:1016B00083E690E090933501809334010E941E05EB
:1016C00081E08093250110924A051092450570C073
:1016D000109247018091C7029091C802039764F568
:1016E0008091D3029091D4022AE030E0B9010E94A7
:1016F000CF3F60933D0180933C018091D102909156
:10170000D202B9010E94CF3F60933B0180933A011E
:101710008091CF029091D002B9010E94CF3F609397
:10172000390180933801EEE3F1E08AE0819391E0A2
:10173000E734F907D9F72BC08091CD029091CE0202
:101740002AE030E0B9010E94CF3F60933D018093D1
:101750003C018091CB029091CC02B9010E94CF3F15
:1017600060933B0180933A018091C9029091CA0233
:10177000B9010E94CF3F6093390180933801EEE3B5
:10178000F1E08AE08193A1E0E734FA07D9F72091EC
:10179000C2024091C1026091C00280E0DF91CF910E
:1017A0001F910F91FF90EF90DF90CF900C94680401
:1017B000DF91CF911F910F91FF90EF90DF90CF902D
:1017C00008950F931F9380916405811104C0809147
:1017D0002305811103C01092450504C18091F702D1
:1017E00081110DC00E94BD366093AE027093AF02AE
:1017F0008093B0029093B10281E08093F70281E080
:101800008093470180910701882309F47EC080916D
:101810002305982F9B7F923021F0843011F088307F
:1018200041F489E090E090934D0580934C050E942F
:10183000E2078091230590E0FC013197E830F10543
:1018400008F0D0C0EA5BFF4F6091540570915505D8
:1018500080915605909157050C9405400E94AA214D
:101860006AE070E00E94CF3F8091510590E06817D8
:10187000790749F410C00E94A4212091500530E05E
:101880008217930741F081E08093AD0204C00E946B
:10189000A421892BC1F36091540570915505809165
:1018A0005605909157050E94AA216AE070E00E94B7
:1018B000CF3F60935105609154057091550580911B
:1018C0005605909157050E94A421809350051092CF
:1018D000AC02109207010E94BD36E091240524E07D
:1018E000E29FF0011124E056FE4F00811181228118
:1018F0003381600F711F821F931F6093A802709342
:10190000A9028093AA029093AB020E94BD36009177
:10191000A8021091A9022091AA023091AB020617E9
:1019200017072807390720F08091AD02811124C0E4
:1019300084EE94E00E94CD2F84EE94E00E94972FD5
:1019400086EC94E00E94CD2F86EC94E00E94972FC5
:101950001092450581E0809307011092AD028091BD
:10196000160590E090934D0580934C050E94E20788
:101970001F910F910C941E050E94BD360091AE027E
:101980001091AF022091B0023091B102601B710B37
:10199000820B930B653671058105910518F18091D5
:1019A000AC02E8E3F1E0819391E0E734F907D9F77D
:1019B00020E040E060E080E00E9468048091AC029A
:1019C0008F5F8A3019F08093AC0202C01092AC0293
:1019D0000E94BD366093AE027093AF028093B00256
:1019E0009093B1021F910F9108958091390588233A
:1019F00059F180914A05811127C082E10E9479370F
:101A0000853F91400CF180914B05882331F060E0D7
:101A100070E08FE593E00C94D02C81E080934B052F
:101A20000E94E207E091390584E0E89FF00111246B
:101A3000E059FE4F408151816281738123EC31E096
:101A40008FE593E00C94B72B08951F93CF93DF930A
:101A5000CDB7DEB7A4970FB6F894DEBF0FBECDBFEB
:101A600080916405882329F080915205882309F428
:101A70001EC16CE172E0CE014F960E94BB3C80918A
:101A800051058230B1F070F4813009F009C16091E4
:101A900054057091550580915605909157050E9407
:101AA000B02115C0833009F462C0843009F494C0B9
:101AB000F7C060915405709155058091560590913D
:101AC00057050E94AA2165E070E00E94CF3F11E017
:101AD000892B09F010E04AE06091BE05CE01019625
:101AE0000E94093D4AE06091BD05CE0107960E9423
:101AF000093D4AE06091BC05CE0143960E94093D34
:101B00004AE06091BB05CE0149960E94093DBE01A5
:101B1000675E7F4FCE010D960E94E83CBE016D5E70
:101B20007F4FCE010D960E94623DBE01695F7F4FDF
:101B30000E94623DBE016F5F7F4F0E94623DBC010B
:101B4000CE014F960E94D13CCE010D960E944D3C95
:101B5000CE0149960E944D3CCE0143960E944D3CD9
:101B6000CE0107960E944D3CCE0101967BC060914C
:101B700054057091550580915605909157050E9426
:101B8000AA21892B09F472C0609154057091550502
:101B900080915605909157050E94AA210F9709F44C
:101BA00065C06091540570915505809156059091DE
:101BB00057050E94AA214E9709F458C06091540518
:101BC0007091550580915605909157050E94AA2164
:101BD0008D9709F065C04AC0609154057091550514
:101BE00080915605909157050E94A421892B09F4F4
:101BF0005CC0609154057091550580915605909197
:101C000057050E94AA21892B09F44FC010E04AE031
:101C10006091BC05CE0107960E94093D4AE06091A3
:101C2000BB05CE010D960E94093DBE01635F7F4F4B
:101C3000CE0101960E94E83CBE01695F7F4FCE0154
:101C400001960E94623DBC01CE014F960E94D13C9C
:101C5000CE0101960E944D3CCE010D960E944D3C56
:101C6000CE0107960E944D3C1123D1F0BE01615E6A
:101C70007F4FCE0101960E94E83CBE016F5F7F4F0F
:101C800080912703909128030E949635CE010196FA
:101C90000E944D3C80912703909128030E94AF350C
:101CA000CE014F960E944D3C02C011E0B0CFA496E9
:101CB0000FB6F894DEBF0FBECDBFDF91CF911F915D
:101CC0000895833079F030F4813051F0823069F436
:101CD0008FE00BC0843041F0853039F48EE105C0CF
:101CE0008AE003C084E101C089E1682F70E080E0F0
:101CF00090E00E949A3EAB01BC0180912703909135
:101D000028030C942A35082F0E941E05C0E0D0E05D
:101D100010E0C430D10584F4B8010C2E02C07595D2
:101D200067950A94E2F76170FE01EF50FE4F8081E3
:101D30000E9479382196EDCF64EF71E080E090E069
:101D40000E94EC3631EFE32E31E0F32EC0E0D0E01C
:101D5000B8010C2E02C0759567950A94E2F7617080
:101D60007727F1E06F27F70181917F010E94793891
:101D70002196C430D10561F764EF71E080E090E016
:101D80000E94EC36C0E0D0E0C4CF8F929F92AF9219
:101D9000BF92CF92DF92EF92FF920F931F93CF9358
:101DA000DF93CDB7DEB768970FB6F894DEBF0FBEEE
:101DB000CDBF40E157E260E070E084E597E00E942B
:101DC000792D2FEF3FEFA9016FEA71E084E597E0ED
:101DD0000E94892D20E040E060E080E00E949705AD
:101DE00026E048EC52EC61E070E083E697E00E9468
:101DF000CC3961E085E00E94403861E084E00E94D7
:101E0000403861E08AE00E94403861E086E00E944C
:101E1000403861E084E10E94403861E087E00E9440
:101E2000403861E08FE10E94403861E08DE10E941E
:101E3000403801EF11E0D801FD908D0161E08F2D58
:101E40000E94403860E08F2D0E947938B1E0053F54
:101E50001B0789F760E08FE10E94793862E08FE02C
:101E60000E94403862E08EE00E94403862E081E1EA
:101E70000E94403862E080E10E94403864EF71E0E7
:101E800080E090E00E94EC3686EC94E00E94CD2F3A
:101E900087EB94E00E94CD2F84EE94E00E94CD2F3A
:101EA00085ED94E00E94CD2F87EB94E00E94972F60
:101EB000892B39F486EC94E00E94972F892B09F442
:101EC000E1C180E090E00E94E5428F3FE1F055E102
:101ED000E52E55E0F52E01E010E0C8010E94E54234
:101EE000F70180838F3F31F4F801EC53FE4F80817E
:101EF000D7018C930F5F1F4FBFEFEB1AFB0A0D3218
:101F0000110559F716C045ECE42E41E0F42E01E02E
:101F100010E0F70161917F01C8010E94ED420F5F5F
:101F20001F4F0D321105A9F760E080E090E00E949C
:101F3000ED428BE0809314058091160590E090931C
:101F40004D0580934C0580912605882349F0F4E0E7
:101F50008F9FC0011124AA2797FDA095BA2F04C016
:101F600081E090E0A0E0B0E0809366059093670583
:101F7000A0936805B09369058091270590E00E94C1
:101F80007505AC019093330180933201009719F4E9
:101F90001092620503C081E080936205662757FDB9
:101FA0006095762F26E080E098E00E94CC39809101
:101FB0003405982F9D7F913011F490933101823038
:101FC00011F0843019F482E0809331018091400552
:101FD0000E94610E0E944A032CE0FE013D96DF0143
:101FE000322F1D923A95E9F784E493E5A4E5B0E039
:101FF0008D879E87AF87B88B1A8A198A80912B05A7
:102000008B8B80912C058C8B80912A058D8B8091F8
:102010002D058E8B80915C0590915D05988F8F8B3F
:102020003C97DF01322F1D923A95E9F783E594E55D
:10203000A4E4B0E089839A83AB83BC831E821D82B3
:10204000809131058F83809132058887809130059A
:102050008987809133058A878DB79EB70C970FB615
:10206000F8949EBF0FBE8DBFADB7BEB7119601905D
:102070000D922A95E1F7CD84DE84EF84F8880989F2
:102080001A892B893C894D895E896F89788D8AE60A
:1020900095E00E94CD2A85ED94E00E94972F0FB61F
:1020A000F894DEBF0FBECDBF892B09F042C081E09E
:1020B000809347010E94BD364B015C0161E087E0DF
:1020C0000E94793861E08FE10E94793810E0C09079
:1020D0002D01D0902E01E0902F01F0903001C80C1E
:1020E000D91CEA1CFB1C0E94BD366C157D058E05B3
:1020F0009F05B8F4E8E3F1E01193B1E0E734FB07A2
:10210000D9F720E040E060E080E00E94680462E3EC
:1021100070E080E090E00E94EC361F5F1A30B9F664
:10212000D5CF60E087E00E94793860E08FE10E94BF
:10213000793884EE94E00E94972F892B61F581E035
:102140008093470161E087E00E94793861E08FE188
:102150000E94793810E0E8E3F1E0119321E0E734E0
:10216000F207D9F720E040E060E080E00E946804D8
:102170006CED75E080E090E00E94EC361F5F1B3054
:1021800051F70E941E0560E087E00E94793860E008
:102190008FE10E94793860E08CE10E94793860E03C
:1021A0008EE10E94793860E088E00E94793860E032
:1021B00089E00E94793801EF11E061E0D8018D914A
:1021C0008D010E94793864EF71E080E090E00E9418
:1021D000EC36B1E0053F1B0781F764E873E080E06F
:1021E00090E00E94CC2381E59EE20E94B6230E94EB
:1021F000AF23029719F08FE00E94830E0E94512EA8
:102200000E948B2280916205882331F023E043E015
:1022100063E082E00E9497050E9476236AE070E006
:102220000E94CF3F609351050E946E23809350051A
:1022300086E390E00E9465368C0120E030E040E4C7
:1022400051E46DE170E00E9467361093280300931B
:102250002703C8010E9425350E94E20768960FB641
:10226000F894DEBF0FBECDBFDF91CF911F910F91CC
:10227000FF90EF90DF90CF90BF90AF909F908F90A6
:102280000C941E056FEF80E090E00E94ED4219CEA5
:10229000CF92DF92EF92FF920F931F93CF93DF9332
:1022A000CDB7DEB768970FB6F894DEBF0FBECDBFCF
:1022B00080912401882361F00E94BD36609341051E
:1022C0007093420580934305909344051092240136
:1022D0008091BD02823209F046C060915405709130
:1022E000550580915605909157050E94B0216AE0EE
:1022F00070E00E94CF3F8C0120912301822F90E05B
:102300008017910771F1233661F10E943C07382F45
:1023100080932201109247018091BD022AE0622F32
:102320000E94C33F80933E0190933D0120933C0166
:1023300020933B01832F0E94C33F80933A019093E7
:10234000390120933801EFE3F1E08AE0819321E045
:10235000E834F207D9F720E041E060E080E00E9435
:1023600068040093230184EE94E00E940D308823DA
:10237000C9F046E950E060E070E084EE94E00E942D
:102380007D2F0E94BD366093410570934205809376
:102390004305909344050E94D4078091BD028F5F4E
:1023A0008093BD0285ED94E00E940D308823C9F032
:1023B00046E950E060E070E085ED94E00E947D2FFA
:1023C0000E94BD366093410570934205809343059A
:1023D000909344050E94D4078091BD028150809360
:1023E000BD028091BD029091BC02891749F0E82F8F
:1023F000F0E0EC5EFA4F9081909322018093BC0252
:1024000086EC94E00E940D308823C1F046E950E04C
:1024100060E070E086EC94E00E947D2F0E94BD3663
:102420006093410570934205809343059093440562
:1024300081E090E0909349058093480587EB94E014
:102440000E940D308823C1F046E950E060E070E062
:1024500087EB94E00E947D2F0E94BD36609341057A
:102460007093420580934305909344058FEF9FEF4F
:1024700090934905809348058091480590914905BE
:10248000892B09F496C38091BD02823219F0811123
:102490000E94D4078091BD0290E08D32910508F032
:1024A00088C3FC01E25BFF4F0C9405408BE08983FD
:1024B00080911405AE014F5F5F4F60E070E090E0E7
:1024C0000E9431058093140574C38FEF8983809136
:1024D0001505AE014F5F5F4F64E070E090E00E9431
:1024E0003105809322018093150563C389E0EFE4F1
:1024F000F1E0DE01119601900D928A95E1F780914D
:102500001605AE014F5F5F4F69E070E090E00E94FA
:102510003105809322018093160590E090934D053C
:1025200080934C050E94E20744C38FEF898380911A
:102530001705AE014F5F5F4F68E170E090E00E94C9
:102540003105809322018093170533C38FEF898370
:1025500080911805AE014F5F5F4F68E170E090E039
:102560000E943105809322018093180522C38FEFCA
:10257000898380911905AE014F5F5F4F63E070E082
:1025800090E00E943105809322018093190511C3C8
:102590008FEF898380911A05AE014F5F5F4F6AE02C
:1025A00070E090E00E9431058093220180931A052B
:1025B00000C38FEF898380911B05AE014F5F5F4F92
:1025C00068E170E090E00E943105809322018093E1
:1025D0001B05EFC28FEF898380911C05AE014F5F11
:1025E0005F4F68E170E090E00E9431058093220126
:1025F00080931C05DEC28FEF898380911D05AE019B
:102600004F5F5F4F63E070E090E00E943105809380
:10261000220180931D05CDC28FEF898380911E0515
:10262000AE014F5F5F4F6AE070E090E00E943105BD
:102630008093220180931E05BCC28FEF8983809115
:102640001F05AE014F5F5F4F68E170E090E00E94B0
:1026500031058093220180931F05ABC28FEF8983E0
:1026600080912005AE014F5F5F4F68E170E090E020
:102670000E94310580932201809320059AC28FEF3A
:10268000898380912105AE014F5F5F4F63E070E069
:1026900090E00E943105809322018093210589C238
:1026A0008FEF898380912205AE014F5F5F4F6AE013
:1026B00070E090E00E943105809322018093220512
:1026C00078C28FEF898380912305AE014F5F5F4F02
:1026D00069E070E090E00E943105809322018093D0
:1026E000230567C28FEF898380912405AE014F5F78
:1026F0005F4F64E070E090E00E943105809322011A
:102700008093240556C28FEF898380912505AE0101
:102710004F5F5F4F63E070E090E00E94310580936F
:1027200022018093250545C28FEF8983809126057C
:10273000AE014F5F5F4F63E070E090E00E943105B3
:102740008093220180932605882349F0A4E08A9F84
:10275000C0011124AA2797FDA095BA2F04C081E0DB
:1027600090E0A0E0B0E08093660590936705A093A9
:102770006805B09369051DC28FEF89838091270595
:10278000AE014F5F5F4F66E070E090E00E94310560
:102790008093220190912705891719F091E0909379
:1027A000BB02809327058823A9F090E00E9475055D
:1027B0009093330180933201AC01662757FD6095F9
:1027C000762F26E080E098E00E94CC3981E080936B
:1027D0006205EFC110926205ECC18FEF8983809191
:1027E0002805AE014F5F5F4F6EE070E090E00E9401
:1027F00031058093220180932805DBC1198281E095
:102800008A8380912905AE014F5F5F4F62E070E0DF
:1028100090E00E9431058093220180932905C9C16F
:102820008FEF898380912A05AE014F5F5F4F6DE086
:1028300070E090E00E9431058093220180932A0588
:10284000B8C185E0E8E5F1E0DE01119601900D9256
:102850008A95E1F780912B05AE014F5F5F4F65E0F0
:1028600070E090E00E9431058093220180932B0557
:10287000A0C187E0EDE5F1E0DE01119601900D9237
:102880008A95E1F780912C05AE014F5F5F4F67E0BD
:1028900070E090E00E9431058093220180932C0526
:1028A00088C18FEF898380912D05AE014F5F5F4F07
:1028B00068E170E090E00E943105809322018093EE
:1028C0002D0577C18FEF898380912E05AE014F5F73
:1028D0005F4F6EE070E090E00E943105809322012E
:1028E00080932E0566C1198281E08A8380912F052D
:1028F000AE014F5F5F4F62E070E090E00E943105F3
:102900008093220180932F0554C18CE0E4E6F1E02E
:10291000DE01119601900D928A95E1F780913005C4
:10292000AE014F5F5F4F6CE070E090E00E943105B8
:1029300080932201809330053CC185E0E8E5F1E019
:10294000DE01119601900D928A95E1F78091310593
:10295000AE014F5F5F4F65E070E090E00E9431058F
:10296000809322018093310524C187E0EDE5F1E0F9
:10297000DE01119601900D928A95E1F78091320562
:10298000AE014F5F5F4F68E070E090E00E9431055C
:1029900080932201809332050CC18FEF898380914F
:1029A0003305AE014F5F5F4F68E170E090E00E9439
:1029B00031058093220180933305FBC08FEF89831B
:1029C00080913405AE014F5F5F4F66E070E090E0AC
:1029D0000E9431058093220180933405982F9D7FBA
:1029E000913011F490933101823019F0843009F064
:1029F000E0C082E080933101DCC08FEF8983809159
:102A00003505AE014F5F5F4F64E670E090E00E94D5
:102A100031058093220180933505CBC08FEF8983E8
:102A200080913605AE014F5F5F4F60E070E090E04F
:102A30000E9431050E943C0780933605BAC08FEF93
:102A4000898380913705AE014F5F5F4F62E370E08D
:102A500090E00E9431058093220180933705A9C040
:102A60008FEF898380913805AE014F5F5F4F6AE039
:102A700070E090E00E943105809322018093380538
:102A800098C08FEF898380913905AE014F5F5F4F0A
:102A900067E070E090E00E9431058093220180930E
:102AA000390587C08FEF898380913A05AE014F5F6A
:102AB0005F4F65E170E090E00E9431058093220154
:102AC00080933A0576C08FEF898380913B05AE01F4
:102AD0004F5F5F4F64E070E090E00E9431058093AB
:102AE000220180933B05833021F481E080934801EB
:102AF00060C0109248015DC08FEF898380913C05D2
:102B0000AE014F5F5F4F6CE370E090E00E943105D3
:102B10008093220180933C054CC08FEF8983809184
:102B20003D05AE014F5F5F4F6CE370E090E00E94A7
:102B300031058093220180933D053BC08FEF89834F
:102B400080913E05AE014F5F5F4F65E070E090E021
:102B50000E9431058093220180933E052AC08FEFA9
:102B6000898380913F05AE014F5F5F4F62E070E067
:102B700090E00E9431058093220180933F0519C0A7
:102B800085E0E8E5F1E0DE01119601900D928A956D
:102B9000E1F780914005AE014F5F5F4F65E070E067
:102BA00090E00E94310580932201809340050E94AD
:102BB000610E8091BD028F3F19F48CE28093BD02BB
:102BC0008091BD02811104C08BE0809322011AC064
:102BD0008D32C1F465E1E62E65E0F62E01E010E0ED
:102BE000F70161917F01C8010E94ED420F5F1F4F05
:102BF0000D321105A9F78091BB02882319F08CE0F2
:102C00000E94830E8091BD028D32D1F10E94BD36AB
:102C100000914105109142052091430530914405F2
:102C2000601B710B820B930B613C744D81409105CD
:102C300038F5109247018091BD022AE0622F0E9470
:102C4000C33F80933D0190933C0120933B0120932F
:102C50003A01809122010E94C33F809339019093F1
:102C60003801EEE3F1E08AE0819321E0E734F207F6
:102C7000D9F720E041E060E080E00E9468047FC076
:102C80000E941E058091320190913301892B31F40D
:102C900023E043E060E080E00E9497052CE0FE0125
:102CA0003D96DF01822F1D928A95E9F784E493E532
:102CB000A4E5B0E08D879E87AF87B88B1A8A198A02
:102CC00080912B058B8B80912C058C8B80912A0514
:102CD0008D8B80912D058E8B80915C0590915D058B
:102CE000988F8F8B3C97DF01822F1D928A95E9F791
:102CF00083E594E5A4E4B0E089839A83AB83BC8345
:102D00001E821D82809131058F83809132058887D4
:102D1000809130058987809133058A87ADB7BEB72A
:102D20001C970FB6F894BEBF0FBEADBF11960190B1
:102D30000D922A95E1F7CD84DE84EF84F888098925
:102D40001A892B893C894D895E896F89788D8AE63D
:102D500095E00E94CD2A0E944A030E946C080E94BE
:102D6000780810924A0581E0809324011092BD02F8
:102D7000109245050FB6F894DEBF0FBECDBF689622
:102D80000FB6F894DEBF0FBECDBFDF91CF911F917C
:102D90000F91FF90EF90DF90CF900895CF92DF9248
:102DA000EF92FF920F931F938AEC95E00E94ED2320
:102DB0008DB79EB70C970FB6F8949EBF0FBE8DBF10
:102DC000ADB7BEB711968CE0E2E9F5E001900D9247
:102DD0008A95E1F7C0909E05D0909F05E090A005F0
:102DE000F090A1050091A2051091A3052091A405E2
:102DF0003091A5054091A6055091A7056091A805C1
:102E00007091A9058AE695E00E94E52865E186E0D3
:102E100095E00E944F3166E075E083EF94E00E94F8
:102E20001C3226E430E040E050E061E184EE94E0C2
:102E30000E94612F26E430E040E050E060E185ED43
:102E400094E00E94612F26E430E040E050E06FE023
:102E500086EC94E00E94612F26E430E040E050E0F0
:102E60006EE087EB94E00E94612F8BE094E00E947B
:102E7000092B8FE593E00E94092B8DB79EB70C9626
:102E80000FB6F8949EBF0FBE8DBF20E030E040E447
:102E900051E46DE170E089E293E01F910F91FF90A2
:102EA000EF90DF90CF900C94673681E792E090939B
:102EB0002A038093290381E393E00C944D3C8F9285
:102EC0009F92AF92BF92CF92DF92EF92FF926B01EF
:102ED0007C0180916205882301F10E94BD364B017F
:102EE0005C0180E098E00E94D8381816190654F466
:102EF00080E098E00E94F138682F8AEC95E00E940B
:102F00005D28EFCF0E94BD36681979098A099B09AF
:102F10006C157D058E059F0520F3FF90EF90DF90E7
:102F2000CF90BF90AF909F908F900895EF92FF92B7
:102F30000F931F93CF93DF938091FF0281110CC0F9
:102F400080911505811102C083E001C081E080936A
:102F5000BA0281E08093FF026AE070E080E090E0D6
:102F60000E945F1780912101882351F00E94BD3695
:102F70006093B6027093B7028093B8029093B9023F
:102F80008091BA02813009F010C28091210188231A
:102F900009F48AC1109221010E941E05E8E0F1E0C7
:102FA0008AE01AE0819341E0E132F407D1F78091A1
:102FB0001505823009F46DC0833009F4EFC081300B
:102FC00009F072C1609154057091550580915605C4
:102FD000909157050E94C221CAE0D0E0BE010E9434
:102FE000CF3F609317016091540570915505809112
:102FF0005605909157050E94C221BE010E94CF3F05
:103000008093180110931901609154057091550532
:1030100080915605909157050E94B621BE010E94ED
:10302000CF3F60931A0160915405709155058091CE
:103030005605909157050E94B621BE010E94CF3FD0
:1030400080931B0110931C016091540570915505EC
:1030500080915605909157050E94C82168EE73E053
:103060000E94CF3F60931D016091540570915505FA
:1030700080915605909157050E94C82164E670E042
:103080000E94CF3FCB01BE010E94CF3F80931E0123
:1030900062C06091540570915505809156059091DC
:1030A00057050E94C221CAE0D0E0BE010E94CF3F76
:1030B00060931A01609154057091550580915605F1
:1030C000909157050E94C221BE010E94CF3F80937C
:1030D0001B01109319016091540570915505809161
:1030E0005605909157050E94B621BE010E94CF3F20
:1030F00060931701609154057091550580915605B4
:10310000909157050E94B621BE010E94CF3F809347
:10311000180110931C016091540570915505809120
:103120005605909157050E94C82108EE13E0B8019A
:103130000E94CF3F60931D01609154057091550529
:1031400080915605909157050E94C821B8010E94B0
:10315000CF3F60931E016091540570915505809199
:103160005605909157050E94C821805D9740BE0189
:103170000E94CF3F60931F016091540570915505E7
:1031800080915605909157050E94C821805D974017
:10319000BE010E94CF3F8093200186C060915405FC
:1031A0007091550580915605909157050E94C22156
:1031B000CAE0D0E0BE010E94CF3F60931C01609145
:1031C00054057091550580915605909157050E94C0
:1031D000C221BE010E94CF3F80931D0110931E01AA
:1031E0006091540570915505809156059091570551
:1031F0000E94B621BE010E94CF3F60931F016091E3
:1032000054057091550580915605909157050E947F
:10321000B621BE010E94CF3F8093200160915405EA
:103220007091550580915605909157050E94C821CF
:1032300078EEE72E73E0F72EB7010E94CF3F609340
:103240001701609154057091550580915605909134
:1032500057050E94C821B7010E94CF3F6093180113
:1032600060915405709155058091560590915705D0
:103270000E94C821805D9740BE010E94CF3F6093AD
:1032800019016091540570915505809156059091F2
:1032900057050E94C821805D9740BE010E94CF3F24
:1032A00080931A0110931B010E94BD360091B60253
:1032B0001091B7022091B8023091B902045C1F4FFF
:1032C0002F4F3F4F061717072807390750F580E0A3
:1032D000E82FF0E0E85FFE4F918190838F5F8831A7
:1032E000B8F38093B5028AE0809320018091B40204
:1032F0008F5F8093B4020E94BD366093B6027093D4
:10330000B7028093B8029093B9028091B4028C30D6
:1033100041F41092B40281E08093210182E0809315
:10332000BA02109247018091110180934601809169
:103330001201809345018091130180934401809193
:103340001401809343018091150180934201809183
:10335000160180934101809110018093400180917A
:103360000F0180933F0180910E0180933E01809177
:10337000080180933D018091090180933C01809177
:103380000A0180933B0180910B0180933A01809167
:103390000C018093390180910D018093380120E068
:1033A00040E060E080E00E9468048091BA028230D0
:1033B000C9F580912101882331F083EF94E00E94C8
:1033C0005A33109221010E94BD360091B60210912D
:1033D000B7022091B8023091B9020C5C174F2F4F01
:1033E0003F4F0617170728073907E0F481E080935D
:1033F00021019091B30280913101911102C082307C
:1034000011F0811102C085E001C083E08093BA020F
:103410000E94BD366093B6027093B7028093B802E3
:103420009093B9028091BA02833009F0BFC08091B5
:103430002101882379F1809134050E9494079C0131
:10344000845691098C3A964220F085E08093BA0226
:1034500021C010922101C90168EE73E00E94CF3FA4
:1034600060931B01E4E6F0E0BF010E94CF3F609350
:103470001C01C901BF010E94CF3FEAE0F0E0BF019B
:103480000E94CF3F60931D01C901BF010E94CF3F41
:1034900080931E010E94BD360091B6021091B702C2
:1034A0002091B8023091B902045C1F4F2F4F3F4F5B
:1034B000061717072807390758F580E0E82FF0E0CE
:1034C000E85FFE4F918190838F5F8731B8F38093DF
:1034D000B5028091B4028F5F8093B4020E94BD3622
:1034E0006093B6027093B7028093B8029093B902CA
:1034F0008091B4028D3061F41092B40281E0809327
:10350000B202809321011092B30284E08093BA0248
:103510008091B202882321F081E08093470102C0AC
:10352000109247011092B2028091110180934601DE
:103530008091120180934501809113018093440191
:103540008091140180934301809115018093420181
:103550008091160180934101809110018093400178
:1035600080910F0180933F0180910E0180933E0175
:103570008091080180933D018091090180933C0175
:1035800080910A0180933B0180910B0180933A0165
:1035900080910C018093390180910D018093380155
:1035A00020E040E060E080E00E9468048091BA0280
:1035B000843029F5109221010E94BD360091B60297
:1035C0001091B7022091B8023091B9020C5C174FEC
:1035D0002F4F3F4F061717072807390780F481E060
:1035E0008093210185E08093BA020E94BD366093EA
:1035F000B6027093B7028093B8029093B90280919B
:10360000BA02853009F0B1C080912101882321F0F0
:103610001092B402109221010E94BD360091B602B0
:103620001091B7022091B8023091B902045C1F4F8B
:103630002F4F3F4F061717072807390708F04BC0D1
:1036400080E0E82FF0E0E85FFE4F918190838F5F8C
:103650008731B8F38093B5028091B4028F5F809375
:10366000B4020E94BD366093B6027093B702809395
:10367000B8029093B9028091B4028B3061F583E671
:1036800090E0909335018093340184EE94E00E94A1
:10369000CD2F84EE94E00E94972F86EC94E00E9458
:1036A000CD2F86EC94E00E94972F80E09AE0E82FDF
:1036B000F0E0E85FFE4F90838F5F8931C0F3809325
:1036C000B50281E0809321018093BA021092B40286
:1036D000109245054AC010924701809111018093D4
:1036E00046018091120180934501809113018093DE
:1036F00044018091140180934301809115018093CE
:1037000042018091160180934101809110018093C4
:10371000400180910F0180933F0180910E018093C1
:103720003E018091080180933D01809109018093C1
:103730003C0180910A0180933B0180910B018093B1
:103740003A0180910C018093390180910D018093A1
:10375000380120E040E060E080E0DF91CF911F91F0
:103760000F91FF90EF900C946804DF91CF911F911F
:103770000F91FF90EF9008950F931F93809127036F
:10378000909128030E94DF3580911F0381110DC0A5
:103790000E94BD366093EB027093EC028093ED02C1
:1037A0009093EE0281E080931F03809117038111B3
:1037B00007C0809146058093EA0281E08093170359
:1037C0008BE094E00E94FB2B8FE593E00E94FB2BA3
:1037D0000E947E236AE070E00E94CF3F182F809104
:1037E0002A01811709F44EC023E043E063E083E03F
:1037F0000E949705109247051092460584E597E0D0
:103800000E94A52D0E94F3010E947E2320913D0578
:1038100030E08217930769F480916505882321F0D1
:1038200080912305873028F080914505882309F48D
:10383000F5C080911505811104C08091340588235D
:1038400069F00E947E2320913C0530E082179307A7
:1038500029F480914505882309F4E4C08091650529
:1038600081110EC08091450581110AC080913905F2
:1038700081110E94F50C8091370581110E94E207A9
:1038800010932A0180910F0381110DC00E94BD3653
:103890006093E6027093E7028093E8029093E90256
:1038A00081E080930F030E94BD360091E6021091E3
:1038B000E7022091E8023091E902601B710B820B54
:1038C000930B00912B0110912C01222717FD2095BD
:1038D000322F601771078207930728F08091450502
:1038E000882309F4A3C0909146058091EA029817B5
:1038F00051F080914505811106C00E94E10380913D
:1039000046058093EA020E9476236AE070E00E94F6
:10391000CF3F8C018091360190913701801791073C
:10392000B9F080914505811113C08091620588230B
:1039300019F081E00E947B0680916405811102C02C
:103940000E9478080E94250D1093370100933601DC
:1039500084EE94E00E94CD2F84EE94E00E94972F95
:10396000892B71F484EE94E00E94832F6D3D7540A5
:103970008105910528F080914505882309F467C0E9
:1039800085ED94E00E94CD2F87EB94E00E94CD2F2F
:1039900087EB94E00E940D30882321F0809165052B
:1039A000811166C086EC94E00E94CD2F86EC94E0F5
:1039B0000E940D30882329F080914505882309F461
:1039C00075C080912B0190912C01039751F080914B
:1039D0006205882331F065E070E080E090E00E94AD
:1039E0005F1780914505823089F038F4813009F005
:1039F00066C01F910F910C949617833059F0843054
:103A000009F05DC01F910F910C9448111F910F9107
:103A10000C94E10B1F910F910C94340982E0809378
:103A2000450507CF81E08093450518CF20E040E0B1
:103A300060E081E00E9468040E94BD366093E60267
:103A40007093E7028093E8029093E9024CCF83E001
:103A5000809345050E94BD366093410570934205F1
:103A6000809343059093440581E080934A0588CF75
:103A70002091660530916705409168055091690570
:103A8000A8E9BAE30E942140AB01BC012EE239E073
:103A90008BE094E00E94B72B1092650581E0809343
:103AA000640580934A050E94E2077CCF809148011B
:103AB00091E08927809348010E94D40782CF1F910B
:103AC0000F9108958091A70690E02091A806821B8F
:103AD000910908952091A8068091A706281750F40F
:103AE000E22FF0E0E755F94F808190E02F5F2093BF
:103AF000A80608958FEF9FEF0895E091A8068091A2
:103B0000A706E81730F4F0E0E755F94F808190E020
:103B100008958FEF9FEF08950895CF92DF92EF926F
:103B2000FF920F931F93CF93DF937C01CB018A0108
:103B300020918306222389F0EB016B01C40ED51E70
:103B4000CC15DD0569F06991D701ED91FC910190EB
:103B5000F081E02DC7010995F3CF642F0E944D1F1E
:103B6000C801DF91CF911F910F91FF90EF90DF90EF
:103B7000CF900895CF93DF931F92CDB7DEB76983BF
:103B8000209183062223D1F020918406203240F038
:103B900021E030E0FC013383228380E090E015C017
:103BA00080918506E82FF0E0EA57F94F99819083DC
:103BB0008F5F809385068093840605C061E0CE0107
:103BC00001960E944D1F81E090E00F90DF91CF9110
:103BD0000895FC011382128248EE53E060E070E029
:103BE000448355836683778389EF91E09183808353
:103BF00008951092A8061092A706109285061092BA
:103C000084060C94901E81E0809383066093A60640
:103C1000109285061092840608950C94031E0F934B
:103C2000062F21E04091840666E876E08091A606A2
:103C30000E94F61E1092850610928406109283064A
:103C40000F9108958F929F92AF92BF92CF92DF9281
:103C5000EF92FF920F931F93CF93DF93EC01F62E19
:103C6000D42E48015901EE2019F10E94031E1E2D89
:103C7000143008F013E01150B8F0E881F98128E021
:103C8000129FB0011124A501940104C056954795D7
:103C9000379527956A95D2F7CA01B9010190F0814D
:103CA000E02DCE010995E7CF60E0CE010E940F1E06
:103CB0004D2D413208F040E22C2D69EA76E08F2D3F
:103CC0000E94AE1E1092A8068093A706DF91CF91A6
:103CD0001F910F91FF90EF90DF90CF90BF90AF902A
:103CE0009F908F900895CF92EF920F931F93C22EC3
:103CF000E12C00E010E098010E94221E1F910F911C
:103D0000EF90CF90089521E00C94731E21E00C9465
:103D1000731E61E00C940F1E87E796E00C94E91D7A
:103D20001092360781E0809334071092330761E0E8
:103D300087E10E94793861E086E10E947938E9EBF9
:103D4000F0E080818E7F808380818D7F808388E416
:103D50008093B80085E48093BC000895413208F058
:103D600043C0909136079111FCCF91E090933607B4
:103D7000209334072FEF2093C90610920E07240FCB
:103D800020930D079093350790913507880F892B65
:103D90008093350780913307813061F410923307A7
:103DA000809135078093BB008091BC0083FDF8CFE4
:103DB00085EC01C085EE8093BC0080913607813090
:103DC000E1F380910E07841710F440910E072FE065
:103DD00037E0FB01D9018A2F821B841718F48D91DB
:103DE0008193F9CF842F089580E008950F93413295
:103DF00008F04AC0909136079111FCCF92E0909361
:103E00003607009334079FEF9093C90610920E0770
:103E100040930D07FB016FE077E0DB019A2F961BC3
:103E2000941718F491919D93F9CF109235079091C2
:103E30003507880F892B80933507809133078130B0
:103E400061F410923307809135078093BB00809115
:103E5000BC0083FDF8CF85EC01C085EE8093BC00EB
:103E6000222321F0809136078230E1F38091C90648
:103E70008F3F61F08091C906803251F08091C90670
:103E8000803341F483E007C081E005C080E003C0D7
:103E900082E001C084E00F910895613298F420918E
:103EA0003607243089F46093EB06FC018DEE96E032
:103EB000DC012A2F281B261718F421912D93F9CF06
:103EC00080E0089581E0089582E0089585ED809373
:103ED000BC008091BC0084FDFCCF10923607089591
:103EE00085EC8093BC001092360708951F920F92C4
:103EF0000FB60F9211240BB60F922F933F934F934F
:103F00005F936F937F938F939F93AF93BF93EF9341
:103F1000FF938091B900887F803609F49EC078F5C0
:103F2000883209F45DC090F4803109F456C038F449
:103F3000882309F4F5C0883009F44FC0F5C08831F2
:103F400009F44EC0803209F45FC0EEC0803409F439
:103F50006AC058F4803309F457C0883309F0E4C0CC
:103F60008093C9060E94701FDFC0803509F44FC0DE
:103F7000883509F45DC0883409F0D6C0D3C08839CB
:103F800009F4C4C0A8F4883709F467C038F4883647
:103F900009F463C0803709F460C0C6C0883809F4EA
:103FA000B5C0803909F45FC0803809F0BDC05BC07E
:103FB000803B09F483C038F4803A09F466C0883A3B
:103FC00009F47CC0B1C0803C09F4A4C0883C09F469
:103FD000A1C0883B09F487C0A7C08091350710C0F5
:103FE00090910E0780910D07981770F5E0910E07DC
:103FF00081E08E0F80930E07F0E0E15FF84F808143
:104000008093BB0085EC83C08093C9068BC0E09190
:104010000E0781E08E0F80930E078091BB00F0E0C9
:10402000E15FF84F808390910E0780910D076BC080
:10403000E0910E0781E08E0F80930E078091BB0008
:10404000F0E0E15FF84F80838091340781116AC00E
:1040500081E08093330784EA5EC083E08093360773
:104060001092CA06CFCF8091CA06803208F04EC0A7
:10407000E091CA0681E08E0F8093CA068091BB0052
:10408000F0E0E553F94F8083BDCF0E94701F80910F
:10409000CA06803230F4E091CA06F0E0E553F94FE9
:1040A00010826091CA0670E0E0912F07F09130070E
:1040B0008BEC96E009951092CA0636C084E0809396
:1040C00036071092EC061092EB06E0913107F09162
:1040D000320709958091EB06811105C081E080933C
:1040E000EB061092ED06E091EC0681E08E0F8093D6
:1040F000EC06F0E0E351F94F80818093BB00909192
:10410000EC068091EB06981708F47CCF85E8809345
:10411000BC000AC085EC8093BC001092360704C036
:104120001092C9060E94661FFF91EF91BF91AF9157
:104130009F918F917F916F915F914F913F912F91BF
:104140000F900BBE0F900FBE0F901F9018956F929F
:104150007F928F929F92AF92BF92CF92DF92EF9217
:10416000FF920F931F93CF93DF93EA012CE3C22EAC
:10417000D12CE12CF12CA70196010E94E33F68832A
:10418000CA01B901A70196010E94E33F6983CA01F0
:10419000B90128E130E040E050E00E94E33F4901EE
:1041A0005A016A83CA01B9016C5F7F4F8F4F9F4FDD
:1041B00027E030E040E050E00E94E33F6F5F6B8318
:1041C00000E010E0980140E054E6652E712C60E9B3
:1041D000C62EDD24D394E42FF0E0EE54F84F7F0197
:1041E00083E0E822FF24E114F10489F4CF01B30154
:1041F0000E94CF3F892B29F08EE691E0A0E0B0E04D
:104200000AC0CF01B6010E94CF3F892BA9F38DE6EA
:1042100091E0A0E0B0E0080F191F2A1F3B1FD90151
:10422000C801AA27BB2788169906AA06BB0610F064
:104230004F5FD1CF4E83E114F10499F4CF0164E6CE
:1042400070E00E94CF3F892B29F08EE691E0A0E03C
:10425000B0E00BC0CF0160E971E00E94CF3F892B35
:10426000A1F38DE691E0A0E0B0E0081B190B2A0B4A
:104270003B0B801A910AA20AB30ACF0164E670E0F0
:104280000E94CF3F9C01CF0160E971E00E94CF3FC7
:10429000E5E0F2E0A0E0A13059F4E114F10451F4BA
:1042A0002115310511F04DE106C00097E1F302C080
:1042B000408101C04CE150E060E070E0841695065A
:1042C000A606B70640F0841A950AA60AB70AAF5F99
:1042D0003196AC3001F7AF5FAD8383948C82DF9170
:1042E000CF911F910F91FF90EF90DF90CF90BF90F3
:1042F000AF909F908F907F906F900895CF92DF92B4
:10430000EF92FF926B017C018091490790914A07DF
:10431000A0914B07B0914C07C816D906EA06FB06D8
:1043200071F04DE457E0C701B6010E94A720C0928A
:104330004907D0924A07E0924B07F0924C07FF9052
:10434000EF90DF90CF9008950E947E2180914F07DB
:1043500090E008950E947E2180914E0790E008959C
:104360000E947E2180914D0790E008950E947E2159
:104370008091510790E008950E947E21809150071E
:1043800090E008950E947E218091520790E0089568
:104390000E947E218091530790E08E54984F08959B
:1043A0006F927F928F929F92AF92BF92CF92DF9245
:1043B000EF92FF920F931F93CF93DF93FC01C68080
:1043C000AC2DB0E020E833E341EE51E00E94214003
:1043D0004B015C0122EB37E06D01C4E6D0E000E95F
:1043E00011E0C901825B97408C159D05DCF4C90181
:1043F00083709927892B99F4C901BE010E94CF3F90
:10440000892B31F4C901B8010E94CF3F892B39F4BF
:1044100080E8880E81E5981E81E0A81EB11C2F5F00
:104420003F4FDFCF6580712C8EE4C81A88EFD80A21
:10443000C60164E670E00E94CF3F8C01C60160E9CE
:1044400071E00E94CF3F7C01C1E0D0E083E0C82250
:10445000DD24C615D7052CF5C230D10589F4C11469
:10446000D10471F40115110519F4E114F10441F4BA
:1044700080E8880E8BE3981E86E2A81EB11C0FC050
:10448000DE01AC5FBD4FAC91B0E020E831E541E02A
:1044900050E00E942140860E971EA81EB91E21964C
:1044A000D8CF4181228130E0A0E1BEE00E940B40E4
:1044B0006B017C01242F30E0ACE3B0E00E940B40A4
:1044C000C60ED71EE81EF91E8081C80ED11CE11C45
:1044D000F11CA481B0E0119720E831E541E050E003
:1044E0000E942C40C60ED71EE81EF91EC80CD91C0F
:1044F000EA1CFB1CC701B601DF91CF911F910F9100
:10450000FF90EF90DF90CF90BF90AF909F908F90F3
:104510007F906F9008950F931F936093430770935C
:1045200044078093450790934607009149011091F5
:104530004A0120914B0130914C01060F171F281F93
:10454000391F00933B0710933C0720933D0730939E
:104550003E0782E090E090933A07809339070E94EB
:10456000BD3660933F077093400780934107909357
:1045700042071F910F9108958F929F92AF92BF9221
:10458000CF92DF92EF92FF920F931F930E94BD365E
:10459000C0903F07D0904007E0904107F09042075D
:1045A00040914707509148076C197D098E099F0972
:1045B0004A0128E1821A2CEF920AAA2497FCA094BF
:1045C000BA2C009143071091440720914507309180
:1045D0004607681579058A059B0538F10F5F1F4F5F
:1045E0002F4F3F4F009343071093440720934507F5
:1045F00030934607D701C60188519C4FAF4FBF4F3C
:10460000662757FD6095762F840F951FA61FB71F4D
:1046100080933F0790934007A0934107B0934207D0
:104620001092480710924707B1CF80913B079091B5
:104630003C07A0913D07B0913E07081719072A07CC
:104640003B07C8F1E0913707F0913807309799F1AF
:104650000995611571058105910519F00E948B225C
:104660002AC08091490190914A01A0914B01B091DB
:104670004C01409143075091440760914507709168
:104680004607840F951FA61FB71F80933B07909383
:104690003C07A0933D07B0933E0781E090E0209156
:1046A000390730913A07232B11F480E090E0909382
:1046B0003A078093390760914307709144078091CE
:1046C0004507909146071F910F91FF90EF90DF9063
:1046D000CF90BF90AF909F908F9008950E94BC2282
:1046E0000E947E2180914F0790E008950E94BC2295
:1046F0000E947E2180914E0790E008950E94BC2286
:104700000E947E2180914D0790E00895EF92FF92E4
:104710000F9394E6E916F1042CF092EBE91A97E076
:10472000F90A03C09EE1E90EF11CE09253070093E1
:1047300052072093510780934F0760934E07409391
:104740004D078DE497E00E94D0210F91FF90EF90EC
:104750000C948B22909348078093470708950E94FA
:10476000BC228091390790913A07089590933807B9
:10477000809337078091430790914407A0914507A4
:10478000B091460780933B0790933C07A0933D0769
:10479000B0933E070C94BC220F931F936093490182
:1047A00070934A0180934B0190934C010091430711
:1047B000109144072091450730914607060F171FB7
:1047C000281F391F00933B0710933C0720933D0798
:1047D00030933E071F910F910895FC0110821182C2
:1047E0001382128214821582168217821086128614
:1047F000118613861486158616861786118A108AE6
:10480000128A138A148A158A168A108E178A118EB4
:10481000128E138E148E158E12A213A214A215A23C
:1048200016A217A210AA11AA12AA13AA14AA15AAAC
:1048300016AE17AEDC01AC5BBF4F1D921D921D92F0
:104840001C92139718961C9211961C92119716960B
:104850001D921D921D921C9219971E961C921196E4
:104860001C92119716961D921D921D921C921997DB
:104870001E961C9211961C92119716961D921D92CF
:104880001D921C9219971E961C9211961C921197BC
:1048900016961D921D921D921C9219971E961C929F
:1048A00011961C92509682E08C9311961C92119650
:1048B0001C9211961C92119611961C921E921296A1
:1048C00011961C921E9212961D921D921D921C9280
:1048D000139714961D921D921D921C921397149675
:1048E0001D921D921D921C92139714961D921D925B
:1048F0001D921C921397EA57FF4F108208952FEBD9
:10490000260F862F992787FD9095263010F4C7979C
:1049100008956156663018F4875591090895C09737
:104920000895FF920F931F93CF93DF93EC01FF2421
:10493000F39488818D3211F0F12C01C02196CE01C3
:104940000E945C429B01AC01A4E6B0E00E942140C1
:10495000FE014991242F332727FD3095205331093B
:104960002A303105A8F34E3241F52181332727FD46
:104970003095205331092A303105F8F44AE0429F3E
:104980008001439F100D1124222717FD2095322FFF
:10499000600F711F821F931F0281112707FD109561
:1049A000005311090A30110540F4222717FD209504
:1049B000322F600F711F821F931FFF2039F09095D7
:1049C0008095709561957F4F8F4F9F4FDF91CF916D
:1049D0001F910F91FF9008952F923F924F925F92F7
:1049E0006F927F928F929F92AF92BF92CF92DF92FF
:1049F000EF92FF920F931F93CF93DF93D82FC92F7E
:104A00008B010E945C4224E630E040E050E00E94CE
:104A1000E33F49015A019B01AC0160E876E988E96E
:104A200090E00E94B33F6B017C01F801918280828B
:104A3000ED2FFC2F2191822F992787FD9095C0970C
:104A40000A97C0F32E3239F51F0180E8882E86E9D7
:104A5000982E88E9A82EB12C9AE0492E512C612C71
:104A6000712CF101C1911F01DD27C7FDD095E097A1
:104A7000CA30D10580F4C501B401A30192010E949E
:104A8000E33F49015A01DE010E942C40C60ED71EA9
:104A9000E81EF91EE6CFA5E0B0E0A70196010E944E
:104AA00021406F5F7F4F8F4F9F4F23E030E040E00A
:104AB00050E00E94E33FF80122833383448355830F
:104AC0001682DF91CF911F910F91FF90EF90DF90B1
:104AD000CF90BF90AF909F908F907F906F905F909E
:104AE0004F903F902F900895CF93DF93EC0187E094
:104AF000FE017096DE01129601900D928A95E1F703
:104B000087E0FE017796DE01199601900D928A9555
:104B1000E1F70E94BD366E8F7F8F88A399A381E055
:104B200089838883DF91CF910895CF93DF93EC0140
:104B30004E815F81688579854A835B836C837D8341
:104B40000E94BD366A877B878C879D8781E0898339
:104B50008883DF91CF910895CF93DF93EC014E814D
:104B60005F81688579854A835B836C837D830E943E
:104B7000BD366A877B878C879D8781E089838883A0
:104B8000DF91CF910895CF93DF93EC01CB010E9489
:104B900091246E837F8388879987DF91CF910895D1
:104BA000CF93DF93EC01CB010E945C426E837F8345
:104BB00088879987DF91CF910895FC0111826281E6
:104BC00073818481958124E630E040E050E00E94CA
:104BD000E33FCB018053984F0895CF92DF92EF923D
:104BE000FF92FC011182628173818481958134E698
:104BF000C32ED12CE12CF12CA70196010E94E33F9A
:104C0000CA01B901A70196010E94E33F862FFF90D8
:104C1000EF90DF90CF900895FC0111826281738143
:104C20008481958120E137E240E050E00E94E33F3B
:104C3000822F0895FC0111826281738184819581A4
:104C400020E432E44FE050E00E94E33F822F0895D9
:104C5000FC011182628173818481958120E137E2B8
:104C600040E050E00E94E33FCA01B90124E630E091
:104C700040E050E00E94E33F862F0895CF92DF92FC
:104C8000EF92FF92FC011182628173818481958190
:104C900044E6C42ED12CE12CF12CA70196010E94F0
:104CA000E33FCA01B901A70196010E94E33F862FA5
:104CB000FF90EF90DF90CF900895FC011182628108
:104CC00073818481958124E630E040E050E00E94C9
:104CD000E33F862F0895CF93DF93EC014A855B85F0
:104CE0006C857D854E835F83688779870E94BD369A
:104CF0006A837B838C839D8381E089838883DF91B2
:104D0000CF910895CF93DF93EC01CB010E949124C2
:104D10006A877B878C879D87DF91CF910895CF939A
:104D2000DF93EC014A855B856C857D854E835F83CF
:104D3000688779870E94BD366A837B838C839D83D5
:104D400081E089838883DF91CF910895CF93DF93AA
:104D5000EC01CB010E945C426A877B878C879D8730
:104D6000DF91CF910895CF93DF93EC01BC01409682
:104D70000E9495420E94BD3668A379A38AA39BA393
:104D800081E08DA38CA3DF91CF91089540E150E0A5
:104D90000C949C42AF92BF92CF92DF92FF920F93FE
:104DA0001F93CF93DF93EC01FC01EB57FF4FF08093
:104DB000FF2009F49CC0319660810E947F24182F47
:104DC000FE01E957FF4F6081CE010E947F2440E140
:104DD000149F800D1124FE01EC57FF4F9081891321
:104DE00076C0B59640815181628173814F5F5F4F7C
:104DF0006F4F7F4F40835183628373838E010856C8
:104E00001F4FD8018C91882369F0389740815181D8
:104E1000628173814F5F5F4F6F4F7F4F408351833C
:104E200062837383FE01EB56FF4F80818823C9F0B4
:104E3000813089F5CE0182960E949525CE01C096DB
:104E40000E94AC25F8018081882329F1CE010E94BF
:104E50007425CE01CE960E946B26CE01845B9F4FB7
:104E600018C0CE01C0960E94AC25D8018C91882331
:104E700041F0CE010E947425CE01865A9F4F0E94B8
:104E80006B26CE0188599F4F0E948F26CE018A58EB
:104E90009F4F0E946B268E0105561F4FF801C0815F
:104EA000D181209709F4FEC0D801ED91FC9166A153
:104EB00077A18EA19FA10E948C42892B09F0F2C09C
:104EC000CE010E94B3260AA4DBA5C02DEACFCB55A4
:104ED000DF4F488159816A817B814F5F5F4F6F4F00
:104EE0007F4F488359836A837B83F12CDBC06C013D
:104EF000B6E9CB0ED11CF60130818B569F4F5C0179
:104F00008E0105561F4F311134C06E0196E8C90E4F
:104F1000D11C61E172E0C6010E948C42892B11F420
:104F200081E00BC067E172E0C6010E948C42892BD0
:104F300019F4F501108203C082E0D5018C93C756A5
:104F4000DF4F88819981F80191838083F801C081C6
:104F5000D181209709F4A6C0B6018EA19FA10E941D
:104F60008C4297FF9AC08AA59BA5D8018D939C93EC
:104F7000EDCFDC01EC91E23009F463C0CE018A5739
:104F80009F4FDC012C91222309F45BC0B0E2EB9F20
:104F9000F0011124E32B3197E932F10508F051C0FB
:104FA000E558FF4F0C940540BC01CE01C0960E940D
:104FB000C32547C0FE01E856FF4F81E0213461F56B
:104FC0002CC0BE01605F7F4F09C081E0233509F02E
:104FD00080E08E8B36C0BE01695E7F4F0E94EC245C
:104FE00030C081E0273509F080E08D8F2AC0BC01F8
:104FF000CE01CE9624C0BC01CE01845B9F4F1FC062
:10500000BC01CE0182960E94D0251BC0FE01E8564D
:10501000FF4F81E021330CF480E0808312C0BC019B
:10502000CE0188599F4F0E94A6260BC0BC01CE011D
:105030008A589F4F04C0BC01CE01865A9F4F0E94E0
:105040008226F801A080B180CA57DF4FA114B104B5
:1050500049F1D801ED91FC9166A177A1F50186A1F6
:1050600097A10E948C42892BE9F4D50198962D9145
:105070003C919997F601808190E08217930794F014
:105080002817390721F4BE01C5010E94C626D501A3
:105090009A96AD90BC909B97D9CF892B19F0D801E7
:1050A0001D921C928F2DDF91CF911F910F91FF9038
:1050B000DF90CF90BF90AF900895CF92DF92EF92A4
:1050C000FF920F931F93CF93DF931F92CDB7DEB75D
:1050D0006C01262FFC01E356FF4F40815181628114
:1050E00073814F5F5F4F6F4F7F4F40835183628368
:1050F00073838C0109561F4F8B579F4F7C012432BD
:1051000079F12CF42A3069F02D30E1F50AC02A3209
:1051100041F02C32B9F5F601EC57FF4F8081822720
:105120008083F80180818F3060F4F601E80FF11D73
:10513000EA57FF4F1082C60129830E94CA2629819F
:1051400001C080E0F601EA56FF4F90819F5F908397
:10515000F801108291E02A3209F090E0F70128C0AE
:10516000F8011082F601EA56FF4F10827297108202
:10517000719682E08083F7011082F601E856FF4FB6
:10518000108218C0F80180818E3048F491E0980FA9
:105190009083F601E80FF11DEA57FF4F2083F701D6
:1051A0008081811107C0F601EC57FF4F9081922753
:1051B000908301C080E00F90DF91CF911F910F91FC
:1051C000FF90EF90DF90CF900895CF92DF92EF9213
:1051D000FF920F931F93CF93DF93CDB7DEB72C973A
:1051E0000FB6F894DEBF0FBECDBFC982DA82EB8264
:1051F000FC820D831E832F83388749875A876B87EC
:105200007C872CE0FE013196DC0101900D922A95FD
:10521000E1F72CE0FE017796DC011C9601900D92DF
:105220002A95E1F72C960FB6F894DEBF0FBECDBFDE
:10523000DF91CF911F910F91FF90EF90DF90CF9072
:105240000895AF92BF92CF92DF92EF92FF920F93A9
:105250001F93CF93DF93CDB7DEB763970FB6F89464
:10526000DEBF0FBECDBF3F87598B122F211109C062
:105270004F5F4D3040F02FEFA21AB20A01E041E03B
:1052800003C0022F01C001E089898B831A82198231
:1052900081E08D834E838EE48A0D8F83CE0101964B
:1052A0000E94D0216B017C01AF84B12C0E94BC21F3
:1052B000402F50E04150510927E0249FF001259FE5
:1052C000F00D11249501281B390BC901079667E0E1
:1052D00070E00E94CF3FE80FF91FDF0120E831E5C1
:1052E00041E050E00E942C406C0D7D1D8E1D9F1DE5
:1052F000111104C060587A438940910963960FB632
:10530000F894DEBF0FBECDBFDF91CF911F910F91FB
:10531000FF90EF90DF90CF90BF90AF9008958F9265
:105320009F92AF92BF92CF92DF92EF92FF920F9334
:105330001F93CF93DF93EC015B01C880D980EA8093
:10534000FB800C811D812E813F81488559856A85AE
:105350007B850E94212968A379A38AA39BA3CC847F
:10536000DD84EE84FF84088919892A893B894C8968
:105370005D896E897F89CE010E9421296B017C01A4
:105380006CA37DA38EA39FA3AE89BF892CE330E0DD
:105390000E941A4008A119A12AA13BA1061B170BC4
:1053A000280B390B088F198F2A8F3B8FAA85BB8555
:1053B0002CE330E00E941A40C61AD70AE80AF90A1C
:1053C000CC8EDD8EEE8EFF8EDF91CF911F910F91EF
:1053D000FF90EF90DF90CF90BF90AF909F908F9015
:1053E0000895CF92DF92EF92FF920F931F93CF9386
:1053F000DF93EC016A017B01CB01BA010E94C82155
:105400008C01688D798D8A8D9B8D0E94C82108172B
:10541000190741F0C701B6010E94C821BC01CE01A5
:105420000E948F298C8D9D8DAE8DBF8D488D598D9D
:105430006A8D7B8D481759076A077B0760F4C4168D
:10544000D506E606F70690F0C816D906EA06FB066A
:1054500068F481E00CC0C816D906EA06FB06C8F35A
:1054600081E0C416D506E606F70608F480E0DF9171
:10547000CF911F910F91FF90EF90DF90CF90089503
:10548000CF92DF92EF92FF920F931F93CF93DF9310
:10549000EC016A017B01CB01BA010E94C8218C0199
:1054A000688D798D8A8D9B8D0E94C82108171907F8
:1054B00041F0C701B6010E94C821BC01CE010E9483
:1054C0008F29B701A601CE010E94F129882319F086
:1054D000AA85BB8502C0AE89BF892CE330E00E945B
:1054E0001A406C0D7D1D8E1D9F1DDF91CF911F9168
:1054F0000F91FF90EF90DF90CF900895CF92DF92C1
:10550000EF92FF920F931F93CF93DF93EC016A0109
:105510007B01CB01BA010E94C8218C0168A179A14D
:105520008AA19BA10E94C8210817190741F0C70151
:10553000B6010E94C821BC01CE010E948F298CA116
:105540009DA1AEA1BFA148A159A16AA17BA1481705
:1055500059076A077B0760F4C416D506E606F70606
:1055600090F0C816D906EA06FB0668F481E00CC084
:10557000C816D906EA06FB06C8F381E0C416D506AC
:10558000E606F70608F480E0DF91CF911F910F91B6
:10559000FF90EF90DF90CF900895CF92DF92EF923F
:1055A000FF920F931F93CF93DF93CDB7DEB72C9766
:1055B0000FB6F894DEBF0FBECDBFC982DA82EB8290
:1055C000FC820D831E832F83388749875A876B8718
:1055D0007C872CE0FE013196DC0101900D922A952A
:1055E000E1F72CE0FE017796DC011C9601900D920C
:1055F0002A95E1F72C960FB6F894DEBF0FBECDBF0B
:10560000DF91CF911F910F91FF90EF90DF90CF909E
:1056100008950F931F93CF93DF93EC010E94BD3643
:10562000FE018E0120E030E0AE01420F531F4457CF
:105630005F4FDA011C9211A610A6D8016D937D93DD
:105640008D939D938D01AF0148585F4FDA011D92F4
:105650001C922F5F3F4F32962A30310529F7C655ED
:10566000DF4F19821882DF91CF911F910F9108951A
:10567000FC01E655FF4F208131812A30310584F449
:10568000FC0120E030E080A591A5892B39F02F5F47
:105690003F4F32962A303105B1F702C0C901089553
:1056A0008FEF9FEF08958F929F92AF92BF92CF920C
:1056B000DF92EF92FF920F931F93CF93DF9300D06F
:1056C00000D0CDB7DEB77C01590149835A836B8383
:1056D0007C830E94382B4C0149815A816B817C81EB
:1056E00097FD32C0A114B10479F16C01CC0CDD1C22
:1056F000CC0CDD1CCE0CDF1CF60144AF55AF66AF01
:1057000077AFF401EE0FFF1FEE0DFF1DB1A6A0A6AF
:10571000EC59FF4F11830083F701E80DF91DE457A1
:10572000FF4F81E080830E94BD36F6016083718364
:1057300082839383F701E655FF4F80819181019623
:1057400091838083C40102C08FEF9FEF0F900F9071
:105750000F900F90DF91CF911F910F91FF90EF90DD
:10576000DF90CF90BF90AF909F908F9008950F9350
:105770001F9301E010E00E94532B1F910F91089599
:10578000CF93DF936A3071059CF5EC01C655DF4F6E
:10579000288139812115310559F1FB01EE0FFF1FD9
:1057A000E80FF91F40A551A5452B11F111A610A630
:1057B000DC01A60FB71FA457BF4F1C92DF01AA56EA
:1057C000BF4F1D921C92DB011F96AA0FBB1FAA0F91
:1057D000BB1FA80FB91F1D921D921D921C921397FB
:1057E000E858FF4F118210822150310939832883F4
:1057F000DF91CF9108952F923F924F925F926F92D7
:105800007F928F929F92AF92BF92CF92DF92EF9250
:10581000FF920F931F93CF93DF9300D000D000D05F
:10582000CDB7DEB79E838D830E94BD362D813E812C
:105830003C832B83F9011A82198222242394312C70
:105840009F012A563F4FD9011D921C9240A551A598
:10585000452B09F454C0AB81BC818D909D90AD90D7
:10586000BC901397DC96CD90DD90ED90FC90DF9787
:105870002B013C01481859086A087B084C145D0448
:105880006E047F04E0F1C80CD91CEA1CFB1CCD920D
:10589000DD92ED92FC92139749815A81AD81BE81D0
:1058A0004A0F5B1F44575F4FDA014C91442339F193
:1058B000AF014C595F4FDA014D915C914115510593
:1058C00021F4D9012D923C921AC07F01B8E7EB0E6A
:1058D000F11CD7010D911C910417150784F4D9010F
:1058E0002D923C920F5F1F4FD7010D931C9304170D
:1058F00015072CF042E050E0D9014D935C93A9814B
:10590000BA811196BA83A98332962B813C812C5F90
:105910003F4F3C832B831A9709F092CF0D811E8154
:10592000E12CF12CF801EA56FF4F80819181813002
:10593000910571F0029791F4D8019896ED91FC9140
:1059400099970995B7018D819E810E94C02B06C051
:10595000D8019896ED91FC9199970995BFEFEB1AB4
:10596000FB0A0E5F1F4F2AE0E216F104D9F62696D5
:105970000FB6F894DEBF0FBECDBFDF91CF911F9160
:105980000F91FF90EF90DF90CF90BF90AF909F90DE
:105990008F907F906F905F904F903F902F900895E1
:1059A0000F931F93CF93DF938C01EB016A30710546
:1059B0006CF40E94BD36FE01EE0FFF1FEE0FFF1FBD
:1059C000E00FF11F6083718382839383DF91CF9116
:1059D0001F910F9108951F920F920FB60F921124ED
:1059E0000BB60F922F933F934F935F936F937F93D9
:1059F0008F939F93AF93BF93EF93FF93E0915707DC
:105A0000F09158070995FF91EF91BF91AF919F9148
:105A10008F917F916F915F914F913F912F910F9057
:105A20000BBE0F900FBE0F901F901895FC01A3E0C6
:105A3000440F551F661F771FAA95D1F741155105D1
:105A400081E06807710514F481E00EC033E07595BC
:105A50006795579547953A95D1F74115510581E0DE
:105A6000680771051CF482E0828331C023E07595DC
:105A70006795579547952A95D1F74115510581E0CE
:105A80006807710514F483E0EFCF92E07595679590
:105A9000579547959A95D1F74115510581E06807CB
:105AA000710514F484E0E0CF82E075956795579511
:105AB00047958A95D1F785E082834115510581E0AC
:105AC0006807710524F04FEF5FEF60E070E05183ED
:105AD0004083509397004093960080919100887F77
